:0400000007EF00F016
:100008004B82C3ED05F0A5EF06F052D380BA02D0BB
:10001800010E01D0000E0101046F056B04C102F14D
:1000280005C103F102C100F103C101F10051011141
:10003800D8B405D0000EAF6F010EAE6F120081B0BC
:1000480002D0010E01D0000E066F076B0651071192
:10005800D8B423D08A848A868A8813D0DFEC06F045
:1000680013C0AAF114C0ABF115C0ACF116C0ADF1C4
:10007800000E0101B16F050EB06F000EAF6F020EDA
:10008800AE6F81B002D0010E01D0000E0C6F0D6B67
:100098000C510D11D8B41200E1D781B202D0010E73
:1000A80001D0000E146F156B14C112F115C113F1B4
:1000B80012511311D8B427D08A848A868A8813D01B
:1000C800DFEC06F013C0AAF114C0ABF115C0ACF117
:1000D80016C0ADF1000E0101B16F080EB06F000E31
:1000E800AF6F020EAE6F81B202D0010E01D0000ECA
:1000F8001A6F1B6B1AC118F11BC119F1185119118C
:10010800D8B41200DDD7000E3E6E000E3D6E000E14
:10011800406E000E3F6E8EEC03F0010E0101A86FD9
:1001280080B880A604D080A002D0000EA86FA8B125
:1001380002D08A9401D08A8480B402D0010E01D002
:10014800000E0101226F236B22C120F123C121F18E
:1001580020C11EF121C11FF11EB102D08A9601D023
:100168008A86010E0101A96F81BA82AE04D080A2ED
:1001780002D0000EA96FA9B102D08A9801D08A884E
:10018800120080BA02D0010E01D0000E01012C6FBE
:100198002D6B2CC12AF12DC12BF12AC128F12BC1BD
:1001A80029F128512911D8A405D0000EAF6F000EEF
:1001B800AE6F12008A848A968A88030E3E6EE80E15
:1001C8003D6E030E406EE80E3F6E8EEC03F012009B
:1001D800DFEC06F06A0E0101AA250001606F130E1C
:1001E8000101AB210001616F000E0101AC2100018A
:1001F800626F000E0101AD210001636F1350605D55
:10020800145061591550625916506359D8B009D025
:10021800000E0101AF6F010EAE6F8A948A968A882C
:100228001200000E3E6E000E3D6E000E406E000E77
:100238003F6E8EEC03F08A84DFEC06F0B50E010108
:10024800AA250001606F090E0101AB210001616F51
:10025800000E0101AC210001626F000E0101AD2109
:100268000001636F1350605D145061591550625955
:1002780016506359D8B003D0646B642B02D00001C8
:10028800646B6447644764478A506419F70B6419C0
:100298008A6E8A98120080B002D0010E01D0000E3A
:1002A80001012E6F2F6B2E512F11D8A40FD080B2C1
:1002B80002D0010E01D0000E346F356B34C132F11B
:1002C80035C133F132513311D8B40FD0000EAF6FAE
:1002D8000B0EAE6FDFEC06F013C0AAF114C0ABF141
:1002E80015C0ACF116C0ADF1120080B402D0010EF9
:1002F80001D0000E01013A6F3B6B3AC138F13BC1A6
:1003080039F138C136F139C137F136513711D8B41E
:100318005AD081BA02D0010E01D0000E466F476B49
:1003280046C144F147C145F144C142F145C143F1D9
:1003380042C140F143C141F180B602D0010E01D063
:10034800000E4C6F4D6B4CC14AF14DC14BF1405101
:100358004A1909E141514B19D8A405D0000EAF6FD5
:10036800040EAE6F120080B602D0010E01D0000E4E
:10037800566F576B56C154F157C155F15451551129
:10038800D8B405D0000EAF6F0A0EAE6F120081BA56
:1003980002D0010E01D0000E646F656B64C162F17A
:1003A80065C163F162C160F163C161F160C15EF171
:1003B80061C15FF15E515F11D8B405D0000EAF6F17
:1003C800070EAE6F120080B602D0010E01D0000EEB
:1003D8006A6F6B6B6AC168F16BC169F16851691129
:1003E800D8B405D0000EAF6F090EAE6F120081BAF7
:1003F80002D0010E01D0000E786F796B78C176F1CA
:1004080079C177F176C174F177C175F174C172F170
:1004180075C173F172517311D8B405D0000EAF6F66
:10042800060EAE6F120080B802D0010E01D0000E89
:100438007C6F7D6B7C517D11D8B405D0000EAF6FF9
:10044800080EAE6F120082BE02D0010E01D0000E5F
:100458008E6F8F6B8EC18CF18FC18DF18CC18AF13B
:100468008DC18BF18AC188F18BC189F188C186F170
:1004780089C187F186518711D8B405D0000EAF6FB6
:10048800050EAE6F1200B0C1AEF1B1C1AFF11200EE
:10049800030E3E6EE80E3D6E030E406EE80E3F6E94
:1004A8008EEC03F0000E0101AF6F030EAE6F120069
:1004B800030E3E6EE80E3D6E010E406EF40E3F6E6A
:1004C8008EEC03F0000E0101B16F050EB06F000E47
:1004D800AF6F030EAE6F1200010E3E6EF40E3D6E4E
:1004E800030E406EE80E3F6E8EEC03F0000E010125
:1004F800B16F080EB06F000EAF6F030EAE6F120033
:10050800DFEC06F0C80E0101AA250001606F000E9D
:100518000101AB210001616F000E0101AC21000156
:10052800626F000E0101AD210001636F1350605D21
:10053800145061591550625916506359D8B006D0F5
:10054800000E0101AF6F030EAE6F1200FC0E3E6E7F
:10055800180E3D6EFC0E406E180E3F6E8EEC03F0CA
:100568001200000E3E6E000E3D6E030E406EE80E49
:100578003F6E8EEC03F0000E0101B16F080EB06FF4
:10058800000EAF6F030EAE6F1200030E3E6EE80E44
:100598003D6E000E406E000E3F6E8EEC03F0000EB6
:1005A8000101B16F050EB06F000EAF6F030EAE6F95
:1005B8001200FD0E3E6E440E3D6E020E406EBC0EE5
:1005C8003F6E8EEC03F0000E0101B16F080EB06FA4
:1005D800000EAF6F030EAE6F1200020E3E6EBC0E21
:1005E8003D6EFD0E406E440E3F6E8EEC03F0000E25
:1005F8000101B16F050EB06F000EAF6F030EAE6F45
:10060800120080B004D00001606B602B02D00001A2
:10061800606B604760478A506019FB0B60198A6EEF
:1006280080B203D0606B602B02D00001606B603B2E
:100638008A506019EF0B60198A6E8A8681B002D0E1
:10064800010E01D0000E0101906F916B9051911134
:10065800D8A40FD081B202D0010E01D0000E986F3D
:10066800996B98C196F199C197F196519711D8B4A1
:10067800120081B002D0010E01D0000E9C6F9D6B5C
:100688009C519D11D8A4F5D781B202D0010E01D09A
:10069800000EA46FA56BA4C1A2F1A5C1A3F1A2513C
:1006A800A311D8A4E6D7000EAF6F000EAE6F1200EC
:1006B800AEC160F0AFC161F000016151000AD8A479
:1006C80012006051000AD8B4A1D4010AD8B459D58F
:1006D800030AD8B47DD5010AD8B4DDD5070AD8B441
:1006E800D7D6010AD8B479D7030AD8B44ED7010AA5
:1006F800D8B4DED60F0AD8B45CD7010AD8B431D73B
:10070800030AD8B4E9D6010AD8B4FAD6070AD8A495
:10071800120077D73EBE06D0E90E3D5C030E3E5868
:10072800D8B016D03EAE06D0180E3D5CFC0E3E5832
:10073800D8A005D03DC043F03EC044F004D0FC0E24
:10074800446E180E436E43C03DF044C03EF004D0E2
:10075800030E3E6EE80E3D6E40BE06D0E90E3F5CCD
:10076800030E4058D8B016D040AE06D0180E3F5CE5
:10077800FC0E4058D8A005D03FC045F040C046F018
:1007880004D0FC0E466E180E456E45C03FF046C0BC
:1007980040F004D0030E406EE80E3F6E3EAE03D02C
:1007A800416A412A01D0416A8B504118FE0B411819
:1007B8008B6E40AE03D0416A412A01D0416A413A6A
:1007C800414641468B504118BF0B41188B6E3EAED7
:1007D8000ED03DC041F03EC042F0411E421E414A8B
:1007E800422AE80E41243D6E030E42203E6E40AE82
:1007F8000ED03FC041F040C042F0411E421E414A67
:10080800422AE80E41243F6E030E4220406EF20E4B
:10081800226E820E236E3F0E246E3DC01BF03EC03A
:100828001CF0C3EC06F01BC01FF01CC020F01DC05C
:1008380021F0F2EC04F01FC02EF020C02FF021C0F0
:1008480030F078EC04F02EC03DF02FC03EF0F20EF0
:10085800226E820E236E3F0E246E3FC01BF040C0F6
:100868001CF0C3EC06F01BC01FF01CC020F01DC01C
:1008780021F0F2EC04F01FC02EF020C02FF021C0B0
:1008880030F078EC04F02EC03FF02FC040F03FC0AD
:1008980013F040C014F0000E166E040E156E63ECD3
:1008A80006F01350BE6E3DC013F03EC014F0000EAB
:1008B800166E040E156E63EC06F01350BB6E3FC047
:1008C80041F0030E4116413ABD504118CF0B411873
:1008D800BD6E3DC041F0030E4116413ABA50411871
:1008E800CF0B4118BA6E120030C032F0336A346A46
:1008F8002F34323601E3338032503C6E3C50D8A45A
:1009080009D0000E2E6E000E2F6E000E306E000EF7
:10091800316E1200170E326E2EC033F02FC034F035
:1009280030C035F03228366E04D0D89035323432A3
:100938003332362EFAD73350376E2F8EFF0E2E16DF
:10094800FF0E2F16000E30162E50386E2F50396EAF
:1009580030503A6E3B6A8E0E3C5E3CAE16D03C5030
:10096800800A8F0FD8B009D0000E2E6E000E2F6EA1
:10097800000E306E000E316E1200D8903B323A32C3
:10098800393238323C3EF9D715D0170E3C640FD0B7
:10099800000E2E6E000E2F6E000E306E000E316EA1
:1009A8001200D890383639363A363B363C063C5039
:1009B800D8A4F7D73750D8B408D03B1E3A1E391EF2
:1009C800386C000E39223A223B2238C02EF039C04A
:1009D8002FF03AC030F03BC031F0120021C025F0B2
:1009E800266A276A2034253601E326802550286E9A
:1009F8002850D8A407D0000E1F6E000E206E000EDF
:100A0800216E120024C025F0266A276A2334253671
:100A180001E3268025502D6E2D50D8A407D0000E56
:100A28001F6E000E206E000E216E12002D507B0FDF
:100A3800282621C02DF024502D1A800E2D16208E28
:100A4800238EFF0E2216FF0E2316000E2416000E0C
:100A5800296E000E2A6E000E2B6E070E2C6E1FA03C
:100A680006D02250292623502A2224502B22D890FF
:100A7800213220321F32D8902236233624362C2EAB
:100A8800EED7090E2C6E1FA006D02250292623501F
:100A98002A2224502B22D890213220321F32D8907B
:100AA8002B322A3229322C2EEED729C013F02AC035
:100AB80014F02BC015F028C016F02DC017F06CEC00
:100AC80005F013C01FF014C020F015C021F012006B
:100AD8001650D8B405D0135014101510D8A40CD043
:100AE800000E136E000E146E000E156E1200162AFC
:100AF800D890153214321332000E1314186E000EEB
:100B08001414196EFE0E15141A6E185019101A10B6
:100B1800D8B40CD0ECD7162A010E1326000E1422D6
:100B2800000E1522D890153214321332000E131409
:100B3800186E000E1414196EFF0E15141A6E185044
:100B480019101A10D8B406D0E6D71606D89013365E
:100B58001436153614BE03D0020E1660F6D716A04A
:100B6800149ED8901632165015121750D8A4158E08
:100B780013C013F014C014F015C015F012000600CD
:100B8800FACF01F0FBCF02F0E9CF03F0EACF04F08F
:100B9800E1CF05F0E2CF06F0D9CF07F0DACF08F0C1
:100BA800F3CF09F0F4CF0AF0F6CF0BF0F7CF0CF043
:100BB800F8CF0DF0F5CF0EF04BC00FF04CC010F091
:100BC8004DC011F04EC012F09EA207D09E92010EA9
:100BD8004726000E482249224A2212C04EF011C070
:100BE8004DF010C04CF00FC04BF00EC0F5FF0DC01B
:100BF800F8FF0CC0F7FF0BC0F6FF0AC0F4FF09C0EE
:100C0800F3FF08C0DAFF07C0D9FF06C0E2FF05C03E
:100C1800E1FF04C0EAFF03C0E9FF02C0FBFF01C017
:100C2800FAFF4B921100C180C182C184C1869380B2
:100C38009382939493969398928892869284938AB7
:100C4800948E9280928294949492949C9490000EA4
:100C5800CA6ECA50870B5809CA6ECA50FC0B0109E4
:100C6800CA6EF90ECB6ECA84000EBE6ECF0EBD16CC
:100C7800BD50F00B0C09BD6E000EBB6ECF0EBA1640
:100C8800BA50F00B0C09BA6E000EF06E000E9D6E95
:100C9800000EA06ED09E9D82F28CF28ED09EF28CB9
:100CA800F28E000E3E6E000E3D6E000E406E000E7F
:100CB8003F6E8EEC03F08A948A968A981200000E92
:100CC800186E16AE06D0156C161ED8B0162A010E70
:100CD800186E14AE06D0136C141ED8B0142A010E68
:100CE800181A000E1A6E000E196E15501610D8B488
:100CF8001CD0010E176E04D0D89015361636172A58
:100D080016AEFAD7D89019361A361550135C165005
:100D18001458D8A005D01550135E1650145A1980CF
:100D2800D89016321532172EEDD71850D8B404D0F3
:100D3800196C1A1ED8B01A2A19C013F01AC014F068
:100D48001200DA0EF66E0D0EF76E000EF86E090040
:100D5800F5CFB0F10900F5CFB1F10101AF6BAE6B82
:100D6800AD6BAC6BAB6BAA6B4A6A496A486A476A57
:100D78004B904B92000EF86E0001E8EF06F0000E63
:100D88001E6E1CAE06D01B6C1C1ED8B01C2A010E91
:100D98001E6E1BC013F01CC014F0156A8E0E166E62
:100DA8001EC017F06CEC05F013C01BF014C01CF04B
:100DB80015C01DF0120047C013F048C014F049C018
:100DC80015F04AC016F0120017EC06F009EC00F016
:040DD800FDD705003E
:020000040020DA
:08000000FFFFFFFFFFFFFFFF00
:020000040030CA
:0E000000240E011EFF0180FF0FC00FE00F4015
:00000001FF
