:040000000BEF00F012
:100008004C82FACF01F0FBCF02F096ED06F0D6EF66
:1000180006F094D380BA02D0010E01D0000E01017F
:10002800046F056B04C102F105C103F102C100F1BF
:1000380003C101F10101005101010111D8B406D039
:10004800000E0101AF6F010EAE6F120081B002D039
:10005800010E01D0000E0101066F076B0101065168
:1000680001010711D8B427D08A848A868A8814D0D7
:1000780010EC07F00FC0AAF110C0ABF111C0ACF141
:1000880012C0ADF1000E0101B16F050EB06F000E88
:100098000101AF6F020EAE6F81B002D0010E01D028
:1000A800000E01010C6F0D6B01010C5101010D11C6
:1000B800D8B41200DDD781B202D0010E01D0000EF3
:1000C8000101146F156B14C112F115C113F101016F
:1000D800125101011311D8B42BD08A848A868A88D8
:1000E80014D010EC07F00FC0AAF110C0ABF111C08A
:1000F800ACF112C0ADF1000E0101B16F080EB06F86
:10010800000E0101AF6F020EAE6F81B202D0010E78
:1001180001D0000E01011A6F1B6B1AC118F11BC127
:1001280019F10101185101011911D8B41200D9D7D8
:10013800000E3A6E000E396E000E3C6E000E3B6EDD
:10014800D3EC03F0010E0101A86F80B880A605D09A
:1001580080A003D0000E0101A86F0101A8B102D050
:100168008A9401D08A8480B402D0010E01D0000E96
:100178000101226F236B22C120F123C121F120C18B
:100188001EF121C11FF101011EB102D08A9601D0D2
:100198008A86010E0101A96F81BA82AE05D080A2BC
:1001A80003D0000E0101A96F0101A9B102D08A98FC
:1001B80001D08A88120080BA02D0010E01D0000E48
:1001C80001012C6F2D6B2CC12AF12DC12BF12AC1F5
:1001D80028F12BC129F10101285101012911D8A4C5
:1001E80006D0000E0101AF6F000EAE6F12008A84B8
:1001F8008A968A88030E3A6EE80E396E030E3C6EB4
:10020800E80E3B6ED3EC03F0120010EC07F06A0E18
:100218000101AA25436E130E0101AB21446E000EA5
:100228000101AC21456E000E0101AD21466E0F5053
:10023800435C105044581150455812504658D8B095
:1002480009D0000E0101AF6F010EAE6F8A948A9635
:100258008A881200000E3A6E000E396E000E3C6E4F
:10026800000E3B6ED3EC03F08A8410EC07F0B50E59
:100278000101AA25436E090E0101AB21446E000E4F
:100288000101AC21456E000E0101AD21466E0F50F3
:10029800435C105044581150455812504658D8B035
:1002A80003D0476A472A01D0476A47464746474628
:1002B8008A504718F70B47188A6E8A98120080B040
:1002C80002D0010E01D0000E01012E6F2F6B01012B
:1002D8002E5101012F11D8A412D080B202D0010EE4
:1002E80001D0000E0101346F356B34C132F135C1D4
:1002F80033F10101325101013311D8B410D0000E8D
:100308000101AF6F0B0EAE6F10EC07F00FC0AAF132
:1003180010C0ABF111C0ACF112C0ADF1120080B445
:1003280002D0010E01D0000E01013A6F3B6B3AC1B9
:1003380038F13BC139F138C136F139C137F1010122
:10034800365101013711D8B469D081BA02D0010EF3
:1003580001D0000E0101466F476B46C144F147C109
:1003680045F144C142F145C143F142C140F143C1A5
:1003780041F180B602D0010E01D0000E01014C6F90
:100388004D6B4CC14AF14DC14BF101014051010186
:100398004A190CE10101415101014B19D8A406D0B9
:1003A800000E0101AF6F040EAE6F120080B602D0CE
:1003B800010E01D0000E0101566F576B56C154F162
:1003C80057C155F10101545101015511D8B406D056
:1003D800000E0101AF6F0A0EAE6F120081BA02D093
:1003E800010E01D0000E0101646F656B64C162F1FA
:1003F80065C163F162C160F163C161F160C15EF121
:1004080061C15FF101015E5101015F11D8B406D0ED
:10041800000E0101AF6F070EAE6F120080B602D05A
:10042800010E01D0000E01016A6F6B6B6AC168F1A1
:100438006BC169F10101685101016911D8B406D095
:10044800000E0101AF6F090EAE6F120081BA02D023
:10045800010E01D0000E0101786F796B78C176F139
:1004680079C177F176C174F177C175F174C172F110
:1004780075C173F10101725101017311D8B406D02D
:10048800000E0101AF6F060EAE6F120080B802D0E9
:10049800010E01D0000E01017C6F7D6B01017C51C2
:1004A80001017D11D8B406D0000E0101AF6F080E0E
:1004B800AE6F120082BE02D0010E01D0000E010103
:1004C8008E6F8F6B8EC18CF18FC18DF18CC18AF1CB
:1004D8008DC18BF18AC188F18BC189F188C186F100
:1004E80089C187F10101865101018711D8B406D06D
:1004F800000E0101AF6F050EAE6F1200B0C1AEF174
:10050800B1C1AFF11200030E3A6EE80E396E030E58
:100518003C6EE80E3B6ED3EC03F0000E0101AF6FAA
:10052800030EAE6F1200030E3A6EE80E396E010E1E
:100538003C6EF40E3B6ED3EC03F0000E0101B16F7C
:10054800050EB06F000E0101AF6F030EAE6F120003
:10055800010E3A6EF40E396E030E3C6EE80E3B6ED9
:10056800D3EC03F0000E0101B16F080EB06F000E5E
:100578000101AF6F030EAE6F120010EC07F0C80E4A
:100588000101AA25436E000E0101AB21446E000E45
:100598000101AC21456E000E0101AD21466E0F50E0
:1005A800435C105044581150455812504658D8B022
:1005B80006D0000E0101AF6F030EAE6F1200FC0EE5
:1005C8003A6E180E396EFC0E3C6E180E3B6ED3EC6C
:1005D80003F01200000E3A6E000E396E030E3C6EE8
:1005E800E80E3B6ED3EC03F0000E0101B16F080E6C
:1005F800B06F000E0101AF6F030EAE6F1200030E55
:100608003A6EE80E396E000E3C6E000E3B6ED3EC6F
:1006180003F0000E0101B16F050EB06F000E01016D
:10062800AF6F030EAE6F1200FD0E3A6E440E396EB8
:10063800020E3C6EBC0E3B6ED3EC03F0000E0101C3
:10064800B16F080EB06F000E0101AF6F030EAE6FF1
:100658001200020E3A6EBC0E396EFD0E3C6E440E50
:100668003B6ED3EC03F0000E0101B16F050EB06FC5
:10067800000E0101AF6F030EAE6F120080B003D001
:10068800436A432A01D0436A434643468A50431883
:10069800FB0B43188A6E80B203D0436A432A01D009
:1006A800436A433A8A504318EF0B43188A6E8A8686
:1006B80081B002D0010E01D0000E0101906F916B44
:1006C8000101905101019111D8A412D081B202D038
:1006D800010E01D0000E0101986F996B98C196F137
:1006E80099C197F10101965101019711D8B41200EF
:1006F80081B002D0010E01D0000E01019C6F9D6BEC
:1007080001019C5101019D11D8A4F2D781B202D0F8
:10071800010E01D0000E0101A46FA56BA4C1A2F1C6
:10072800A5C1A3F10101A2510101A311D8A4E0D7E9
:10073800000E0101AF6F000EAE6F1200AEC143F0A4
:10074800AFC144F04450000AD8A412004350000A34
:10075800D8B460D4010AD8B42ED5030AD8B455D574
:10076800010AD8B4ACD5070AD8B4CDD6010AD8B492
:1007780070D7030AD8B443D7010AD8B4D4D60F0A1D
:10078800D8B452D7010AD8B425D7030AD8B4E0D6CA
:10079800010AD8B4F2D6070AD8A412006FD73ABE15
:1007A80006D0E90E395C030E3A58D8B016D03AAEE6
:1007B80006D0180E395CFC0E3A58D8A005D039C0BE
:1007C8003FF03AC040F004D0FC0E406E180E3F6E69
:1007D8003FC039F040C03AF004D0030E3A6EE80E3C
:1007E800396E3CBE06D0E90E3B5C030E3C58D8B0CF
:1007F80016D03CAE06D0180E3B5CFC0E3C58D8A078
:1008080005D03BC041F03CC042F004D0FC0E426E23
:10081800180E416E41C03BF042C03CF004D0030EBC
:100828003C6EE80E3B6E3AAE03D03D6A3D2A01D0DD
:100838003D6A8B503D18FE0B3D188B6E3CAE03D0C5
:100848003D6A3D2A01D03D6A3D3A3D463D468B50C2
:100858003D18BF0B3D188B6E3AAE0ED039C03DF037
:100868003AC03EF03D1E3E1E3D4A3E2AE80E3D245B
:10087800396E030E3E203A6E3CAE0ED03BC03DF0C2
:100888003CC03EF03D1E3E1E3D4A3E2AE80E3D2439
:100898003B6E030E3E203C6EF20E1E6E820E1F6EE5
:1008A8003F0E206E39C017F03AC018F0F4EC06F08D
:1008B80017C01BF018C01CF019C01DF037EC05F06C
:1008C8001BC02AF01CC02BF01DC02CF0BDEC04F09E
:1008D8002AC039F02BC03AF0F20E1E6E820E1F6E3F
:1008E8003F0E206E3BC017F03CC018F0F4EC06F049
:1008F80017C01BF018C01CF019C01DF037EC05F02C
:100908001BC02AF01CC02BF01DC02CF0BDEC04F05D
:100918002AC03BF02BC03CF03BC00FF03CC010F0AD
:10092800000E126E040E116E54EC06F00F50BE6EDF
:1009380039C00FF03AC010F0000E126E040E116E9E
:1009480054EC06F00F50BB6E3BC03DF0030E3D1655
:100958003D3ABD503D18CF0B3D18BD6E39C03DF036
:10096800030E3D163D3ABA503D18CF0B3D18BA6EEE
:1009780012002CC02EF02F6A306A2B342E3601E379
:100988002F802E50386E3850D8A409D0000E2A6E09
:10099800000E2B6E000E2C6E000E2D6E1200170E20
:1009A8002E6E2AC02FF02BC030F02CC031F02E282C
:1009B800326E04D0D890313230322F32322EFAD7FC
:1009C8002F50336E2B8EFF0E2A16FF0E2B16000E9D
:1009D8002C162A50346E2B50356E2C50366E376AD2
:1009E8008E0E385E38AE16D03850800A8F0FD8B0C9
:1009F80009D0000E2A6E000E2B6E000E2C6E000E13
:100A08002D6E1200D8903732363235323432383EB5
:100A1800F9D715D0170E38640FD0000E2A6E000EC5
:100A28002B6E000E2C6E000E2D6E1200D8903436F0
:100A380035363636373638063850D8A4F7D73350D7
:100A4800D8B408D0371E361E351E346C000E352239
:100A58003622372234C02AF035C02BF036C02CF0AD
:100A680037C02DF012001DC021F0226A236A1C3401
:100A7800213601E322802150246E2450D8A407D0C7
:100A8800000E1B6E000E1C6E000E1D6E120020C0A4
:100A980021F0226A236A1F34213601E32280215083
:100AA800296E2950D8A407D0000E1B6E000E1C6EAC
:100AB800000E1D6E120029507B0F24261DC029F040
:100AC8002050291A800E29161C8E1F8EFF0E1E1606
:100AD800FF0E1F16000E2016000E256E000E266E45
:100AE800000E276E070E286E1BA006D01E50252666
:100AF8001F50262220502722D8901D321C321B322C
:100B0800D8901E361F362036282EEED7090E286EAE
:100B18001BA006D01E5025261F5026222050272213
:100B2800D8901D321C321B32D890273226322532FB
:100B3800282EEED725C00FF026C010F027C011F0E0
:100B480024C012F029C013F0B1EC05F00FC01BF05F
:100B580010C01CF011C01DF012001250D8B405D0FE
:100B68000F5010101110D8A40CD0000E0F6E000EEC
:100B7800106E000E116E1200122AD8901132103227
:100B88000F32000E0F14146E000E1014156EFE0EA8
:100B98001114166E145015101610D8B40CD0ECD7CA
:100BA800122A010E0F26000E1022000E1122D890D4
:100BB800113210320F32000E0F14146E000E101482
:100BC800156EFF0E1114166E145015101610D8B4A9
:100BD80006D0E6D71206D8900F361036113610BE5A
:100BE80003D0020E1260F6D712A0109ED8901232CF
:100BF800125011121350D8A4118E0FC00FF010C04C
:100C080010F011C011F01200C180C182C184C186E8
:100C180093809382939493969398928892869284E1
:100C2800938A948E9280928294949492949C9490B5
:100C3800000ECA6ECA50870B5809CA6ECA50FC0B00
:100C48000109CA6EF90ECB6ECA84000EBE6ECF0EB5
:100C5800BD16BD50F00B0C09BD6E000EBB6ECF0E5D
:100C6800BA16BA50F00B0C09BA6E000EF06E000EF0
:100C78009D6E000EA06ED09E9D82F28CF28ED09E4C
:100C8800F28CF28E000E3A6E000E396E000E3C6E3B
:100C9800000E3B6ED3EC03F08A948A968A98120071
:100CA800000E146E12AE06D0116C121ED8B0122AA5
:100CB800010E146E10AE06D00F6C101ED8B0102A9C
:100CC800010E141A000E166E000E156E1150121039
:100CD800D8B41CD0010E136E04D0D8901136123639
:100CE800132A12AEFAD7D8901536163611500F5C63
:100CF80012501058D8A005D011500F5E1250105A3B
:100D08001580D89012321132132EEDD71450D8B462
:100D180004D0156C161ED8B0162A15C00FF016C0D0
:100D280010F012000600E9CF03F0EACF04F0E1CF9B
:100D380005F0E2CF06F0D9CF07F0DACF08F0F3CF0D
:100D480009F0F4CF0AF0F6CF0BF0F7CF0CF0F8CF9C
:100D58000DF0F5CF0EF09EA207D09E92010E482608
:100D6800000E49224A224B220EC0F5FF0DC0F8FFA3
:100D78000CC0F7FF0BC0F6FF0AC0F4FF09C0F3FF71
:100D880008C0DAFF07C0D9FF06C0E2FF05C0E1FFCF
:100D980004C0EAFF03C0E9FF02C0FBFF01C0FAFF7D
:100DA8004C9211000101AF6BAE6BAD6BAC6BAB6BD2
:100DB800AA6B4B6A4A6A496A486A3C0EF66E0E0E7E
:100DC800F76E000EF86E0900F5CFB0F10900F5CF07
:100DD800B1F14C904C92000EF86E000119EF07F03B
:100DE800000E1A6E18AE06D0176C181ED8B0182A46
:100DF800010E1A6E17C00FF018C010F0116A8E0E8F
:100E0800126E1AC013F0B1EC05F00FC017F010C045
:100E180018F011C019F0120048C00FF049C010F0C6
:100E28004AC011F04BC012F0120008EC06F00DECAD
:060E380000F0FDD70500EB
:020000040020DA
:08000000FFFFFFFFFFFFFFFF00
:020000040030CA
:0E000000240E011EFF0180FF0FC00FE00F4015
:00000001FF
